:100000000C94D1010C9409020C9409020C9409027D
:100010000C9409020C9409020C9409020C94090234
:100020000C9409020C9409020C94151F0C94E71F00
:100030000C9450190C9409020C9409020C940902B6
:100040000C9409020C9409020C9409020C94090204
:100050000C9409020C94D9190C9409020C9409020D
:100060000C9409020C9409020C9409020C940902E4
:100070000C9409020C9409020C9409020C940902D4
:100080000C9409020C9409020C9409020C940902C4
:100090000C9409020C9409020C9409020C940902B4
:1000A0000C9409020C9409020C9409021C071C0709
:1000B00048074807A907C707B608B608CC0742088B
:1000C000530853087D16EF1685164F1653168916DA
:1000D00056168C1697166116E51665169B16691648
:1000E0009F16C9166D16A316D3167316A916B31646
:1000F0005A1690165D1693167816AE16BF16DF16B2
:10010000E1164B168116F8169217981786178C175A
:100110009E17A417AA174F2076206E2176206E21F5
:10012000C220E5206E213C214B21445049206973B7
:10013000206E6F772025640A00756E6B6E6F776E88
:10014000290A00514B5F424F4F54290A004359433B
:100150005F445049290A0054475F5343524F4C4C67
:10016000290A00526563656976656420636F6D6D69
:10017000616E642030622530326220280000004425
:10018000454255473A2064697361626C65642E0A82
:100190000044454255473A20656E61626C65642EA5
:1001A0000A006C65645F7461736B3A2025303258C5
:1001B0000A004F6E6573686F743A206163746976E4
:1001C000653A2025640A000A0025303862003A208A
:1001D0000025303258000A722F6320303132333418
:1001E0003536370A000A002530325820006B657911
:1001F000626F6172645F7265706F72743A2025304D
:100200003258207C200073757370656E64696E6768
:10021000206B6579626F6172640D0A005B575D0047
:100220005B535D005B525D005B445D005B435D00C2
:100230001E0354007200610063006B0062006100E5
:100240006C006C0020004E0061006E006F0000002A
:10025000120350006C006F006F00700079004300C3
:100260006F0000000403090409025400030100A008
:1002700032090400000103010100092111010001FC
:10028000224400070581030800010904010001035D
:10029000000000092111010001227B0007058203F3
:1002A00020000109040200010300000009211101DE
:1002B000000122150007058303200001120100023E
:1002C000000000084350A354010001020001063160
:1002D000FF0974A1010975150026FF009520750816
:1002E0008102C005010902A10185020901A10005E1
:1002F00009190129081500250195087501810205D4
:1003000001093009311581257F950275088106099B
:10031000381581257F950175088106050C0A38027C
:100320001581257F950175088106C0C005010980EA
:10033000A101850319012AB700150126B70095010F
:1003400075108100C0050C0901A101850419012A5D
:10035000A002150126A002950175108100C00501BB
:100360000906A101050719E029E7150025019508EF
:10037000750181029501750881010507190029FFA2
:10038000150026FF0095067508810005081901294A
:1003900005150025019505750191029501750391DB
:1003A00001C011241FBECFEFDAE0DEBFCDBF04B61F
:1003B00003FE18C08091B8029091B902A091BA02D0
:1003C000B091BB028730904BA740B04B59F41092CC
:1003D000B8021092B9021092BA021092BB02E0E089
:1003E000F8E3099511E0A0E0B1E0E0EDF4E402C02B
:1003F00005900D92AC3AB107D9F722E0ACEAB1E032
:1004000001C01D92A83BB207E1F70E94FA120C94BA
:1004100066220C940000FF93EF93E091AC01F09101
:10042000AD01309709F00995EF91FF910895FC0116
:100430008591803011F0EFDFFBCF0895FF27E0E2D8
:1004400030E247FF0CC0419597FF09C0EDE260958F
:10045000709580959095611D711D811D911D27FFDF
:1004600002C0219530E350E2AA27660F771F881F4C
:10047000991FAA1FA41710F0A41B63955A95A9F7FA
:10048000AA3008F0A95FA05DAF93F39561157105DF
:100490008105910541F7ED3211F4EF93F395F217D1
:1004A00018F43F93F395FBCF8F91B5DFFA95E1F701
:1004B0000895E991F9918591803021F0853219F004
:1004C000AADFF9CF089520E0E89455915532C1F3A1
:1004D000503311F4689455915A3348F4505390F3C3
:1004E000220F022E220F220F200D250FF4CF0EF423
:1004F000219589919991533619F3533729F1533541
:1005000059F1BC0188279927E8945C3621F4899138
:10051000999168945591543639F446EF7EF077FFFF
:100520000DC08FEF9FEF0AC055374AE039F05835BC
:1005300040E121F0523642E009F00895FF93EF9335
:100540007DDFEF91FF91B7CFFF93EF93FC01819196
:100550008030B9F360DFFBCFFF93EF9368DFF1CF1B
:10056000DF93CF93CDB7DEB72596A3DFCF91DF9191
:100570000895CF93DF93CFE9D2E0E881EF5FE17098
:10058000E883F0E0EE0FFF1FE050FF4F8081918184
:100590000E94D113E881F0E0EE0FFF1FE050FF4F03
:1005A00081818F9380818F938AE291E09F938F93D3
:1005B0000E94B0020F900F900F900F90DF91CF919B
:1005C0000895E0919F02F0E0EE0FFF1FE050FF4F13
:1005D000808191810E94D1130895A1E1B0E0E3EF01
:1005E000F2E00C94CF2181E1E2E1F1E0DE0111962D
:1005F00001900D928A95E1F7FE0131969E012E5EE3
:100600003F4F41E050E08191A82FA295AF70B0E03C
:1006100091966C9191978F708A0102C0000F111F03
:100620008A95E2F7C801962F982B91969C93919703
:1006300092969C9192978095892392968C932E17EF
:100640003F0709F70E94BA0F6196E4E00C94EB2192
:1006500010929F0260919F027091A0028091A1026E
:100660009091A2020E94E10E0E94EF0E08950E9456
:10067000DC0E60939F027093A0028093A10290937E
:10068000A202633010F00E9428030E949112089584
:100690000E94CF1782FF03C087E40E94C306109216
:1006A000B10160E070E0CB0108950F931F93CF93E9
:1006B0008A01FA0180811F928F9383E691E09F93D4
:1006C0008F930E94B0020F900F900F900F90F8013F
:1006D000C081C23081F0C330B9F0C130F1F487E598
:1006E00091E09F938F930E94B00280910401C827EC
:1006F000C093040118C08DE491E09F938F930E94F2
:10070000B0020E94B9020FC083E491E09F938F93DF
:100710000E94B0020E94F70406C089E391E09F9313
:100720008F930E94B0020F900F90F80110821182F7
:1007300012821092B50160E070E0CB01CF911F9161
:100740000F910895ACE0B0E0E8EAF3E00C94CD211D
:100750004F8358878B017C01812F012E000C990B50
:10076000860F911D67FD9A95181619061CF50E94B3
:10077000CF1782FD03C087E40E94C3068091B101B8
:10078000811110C081E08093B10120E030E048E4A5
:1007900053E068EC70E080E090E00E94D315809315
:1007A000B20108C048EC50E060E070E08091B20116
:1007B0000E94E61580910401882331F16091B40113
:1007C000060F0093B4017091B301170F1093B3019A
:1007D0000D332CF01092B401FF24FA9406C0043CAF
:1007E00024F41092B401FF24F39410312CF01092F1
:1007F000B301EE24E39406C0113F24F41092B30138
:10080000EE24EA9410E000E009871A87EB86FC8664
:1008100086E0FE013796DE01119601900D928A95D1
:10082000E1F729813A814B815C816D817E8180E095
:1008300090E02C96E6E00C94E9210E94CF1781709D
:100840008093B7010E94CF17869581708093B6017F
:100850000895CF93DF93D82FD17081FBCC27C0F9B7
:100860008091B50181110DC081E08093B5012EEA20
:1008700031E045E553E069E170E080E090E00E94FE
:10088000D3158091B701D81771F08091AF018F5FB8
:100890008093AF01823039F48091AE018160809302
:1008A000AE011092AF018091B6018C1771F080916A
:1008B000B0018F5F8093B001823039F48091AE0136
:1008C00082608093AE011092B001D093B701C093C3
:1008D000B60181E0DF91CF910895811109C06111C6
:1008E00007C0411105C0EDE7F1E0859194910895AD
:1008F00081E090E008950E946D04089581E00895DC
:1009000081E008950E94800408950E948204089561
:100910000E948004089508950E948B040895A6E023
:10092000B0E0E5E9F4E00C94D02149835A839E833A
:100930003091BD0189819A81311115C03E813323E7
:1009400059F0222349F00E94650A182F682F8981E7
:100950009A810E944C0A03C00E94580A182F69818C
:100960007A81812F04C00E94650A69817A810E9480
:100970005A112696E3E00C94EC21FC01262F4081CD
:10098000518162817381848195810E948F040895D1
:10099000CF93DF93EC0161E00E94BD04BE010E9491
:1009A0008504DF91CF910895CF93DF93EC0160E050
:1009B0000E94BD04BE010E948C04DF91CF91089576
:1009C00081E008950E94E0040895CF93C82F0E940B
:1009D00023098C2F0E94E2042FEF84E39CE0215036
:1009E00080409040E1F700C00000CF91089581E081
:1009F0000E94E5040E94FF19089580E00E94E5042A
:100A00000E94231A08950F931F93CF93DF938C01B5
:100A100061E00E94BD04EC01B8010E9488048823B3
:100A200009F464C0B801CE010E947A17882309F442
:100A30005DC0B801CE010E942716882309F456C074
:100A4000B801CE010E94FD15882309F44FC0F801BA
:100A50008581882309F445C0C3308CE7D807B9F1F4
:100A600058F4C130FCE7DF07A1F1A0F4C115DC4761
:100A7000C1F50E94F7043AC0CB35FCE7DF0779F1F6
:100A8000CC358CE7D80741F1CA35DC4751F50E94D7
:100A9000AD0E27C080912B02C82FC095C170C0FB3E
:100AA00080F980932B02CC2349F081E991E09F9358
:100AB0008F930E94B0020F900F9018C08FE791E0C3
:100AC0009F938F930E94B0020F900F9010C00E94CE
:100AD000B50E0E94FD040AC00E94A30E02C00E942F
:100AE000B10EC8010E947E04C82F01C0C0E08C2F47
:100AF000DF91CF911F910F9108950E942E190E94AE
:100B0000B6050E947F1308950E94BA050E94371906
:100B100008958295982F937344E0949F9001112437
:100B20008C7C86958695282B822F8575880F2A7A4E
:100B30002695822B089508950895CF93DF93D82F9B
:100B40000E942904C82F882319F08D2F0E949C052C
:100B50008C2FDF91CF9108950895CF93C82F0E94D5
:100B60009B058C2F0E949D05CF91089580E00E94E7
:100B7000AD0508950E94C2170E94AD050895CF9358
:100B80000E94C217C82F8091B801C81709F1C093FD
:100B9000B8010E94BE196093B9017093BA018093A5
:100BA000BB019093BC0180912B0282FF0EC080FF9D
:100BB0000CC01F92CF9382EA91E09F938F930E9483
:100BC000B0020F900F900F900F908C2F0E94AD05E8
:100BD000CF910895ADE0B0E0E0EFF5E00C94D121C5
:100BE000488759876A877B878C879D8791110E94E8
:100BF000CB0DCE01019627E0FC0111922A95E9F771
:100C000026E0FE013896DC0101900D922A95E1F76D
:100C10002D8121110AC029813A814B815C816D812E
:100C20007E818F810E94150D04C00E94C80481112D
:100C3000F2CF2D96E2E00C94ED21FC0124812130CD
:100C400021F4808191810E94970A089593E3980F7F
:100C5000933118F490E00E94D7130895CF9388231E
:100C600009F444C0C82F8CEF8C0F813A70F48C2F9C
:100C70000E948618882329F08C2F0E94C9180E9490
:100C80002D0E8C2F0E94C1180CC080E28C0F883072
:100C900058F4C77081E001C0880FCA95EAF70E9436
:100CA000AE0D0E942D0E22C0EBE5EC0FE33040F4B8
:100CB000F0E0E75AFE4F808190E00E942D1816C0A8
:100CC000E8E5EC0FEB3150F4F0E0EE0FFF1FED5DC7
:100CD000FE4F808191810E94521808C083E38C0FDF
:100CE000833120F461E08C2F0E942606CF91089575
:100CF000882381F19CEF980F913A18F40E94C9184B
:100D00000DC090E2980F983060F4877091E001C0B8
:100D1000990F8A95EAF7892F0E94B40D0E942D0E33
:100D200008959BE5980F933028F480E090E00E94AE
:100D30002D18089598E5980F9B3128F480E090E0F5
:100D40000E945218089593E3980F933118F460E0CD
:100D50000E94260608951F93CF93DF93182FEB016F
:100D60000E942E06209741F08FE99FE00197F1F74E
:100D700000C000002197F6CF812F0E947806DF91F6
:100D8000CF911F910895893319F060E070E002C09F
:100D900060E570E00E94AB060895882321F00E9470
:100DA000AE0D0E942D0E0895882321F00E94B40DEF
:100DB0000E942D0E0895A0E0B0E0E1EEF6E00C9464
:100DC000CB217C01162FC72FFC01D581068102950E
:100DD0000F700E94A40D8823F9F0DD23E9F08C2F19
:100DE000807F803461F080E2810F8830A8F08C2F02
:100DF000807E803221F4123078F0002369F08091F7
:100E0000A40282FF09C082E00E94630E0E94A40D2A
:100E100091E0D82ED92601C0D12CCC2EC2948FE0DF
:100E2000C8228C2D90E08C30910508F09FC1FC0108
:100E3000EA5AFF4F0C94BB218C2F807FCF70882300
:100E400011F0C295C07FDD2399F0CC2309F47AC15B
:100E500080E2810F883010F0111104C08C2F0E94A5
:100E6000AE0D03C08C2F0E94BE0D0E942D0E6AC1D4
:100E7000812F0E947806CC2309F478C180E2810F8B
:100E8000883038F1112329F18C2F0E94C40D24C021
:100E90008C2F807FCF70803211F0C295C07F1123DC
:100EA00019F0113099F13CC08091A40282FD17C065
:100EB000DD2349F0CC2329F08C2F0E94AE0D0E9437
:100EC0002D0E80E040C180E00E947806CC2309F41A
:100ED0004DC18C2F0E94B40D0E942D0E47C1DD2301
:100EE00049F0002309F1013009F040C18C2F0E9424
:100EF000D50D3CC101113AC18C2F0E94D4068C2F14
:100F00000E94E10D8C2F0E94360E30C1DD2321F0AE
:100F1000063008F02BC108C0053008F027C115C005
:100F2000DD2331F001110EC18C2F0E94CD061EC1B0
:100F3000002359F0193309F016C1FFEF27EE83E0C3
:100F4000F15020408040E1F70CC18C2F0E94D40664
:100F50000DC18C2F86958695837019F0813061F0D4
:100F600005C1DD2321F0812F9C2F937002C080E00A
:100F700090E00E942D1802C1DD2321F0812F9C2FCB
:100F8000937002C080E090E00E945218F7C06D2F6D
:100F9000812F0E942606F2C08C2F8370B1F5D111EB
:100FA000E9C0412F429546954770440F440F812F69
:100FB0008F7090E09C01042E02C0220F331F0A9410
:100FC000E2F714FF0AC08FE090E002C0880F991F7B
:100FD0004A95E2F78095909502C080E090E0C69532
:100FE000C695C370822B932BC23049F058F4C130A0
:100FF00019F00E947F09BEC00E947609BBC00E9402
:101000008809B8C00E947309B5C0DD2319F08C2F80
:10101000817001C08695882309F4ACC0412F4295A8
:1010200046954770440F440F812F8F7090E09C01CC
:10103000042E02C0220F331F0A94E2F714FF0AC0E5
:101040008FE090E002C0880F991F4A95E2F78095E3
:10105000909502C080E090E0C695C695C370822B43
:10106000932BC23049F058F4C13019F00E94E709BF
:1010700081C00E94DE097EC00E94F0097BC00E94F0
:10108000940978C0CF70DD2339F08C2F0E94AC0911
:10109000812F0E94CD066EC0812F0E94D4068C2F16
:1010A0000E94BC0967C0123F21F128F4103F41F0B3
:1010B000113FC1F043C0133F19F1143F79F03EC016
:1010C000DD2341F0053008F051C08C2F8F710E9454
:1010D000CE094CC0063008F049C0F7CF8091A40279
:1010E00082FD18C0DD2339F08C2F8F710E94AC096E
:1010F0003DC0DD23C9F38C2F8F710E94BC0936C01F
:10110000DD2329F08C2F8F710E94A0092FC00E942F
:101110009B092CC0DD2349F0CF718C2F0E94AC09B4
:1011200063E08C2F0E94450E21C081E00E94630E77
:101130000230E0F082E00E94630E18C0DD2331F03F
:10114000002391F2812F0E942E0610C0002399F2F5
:10115000193349F49FEFE7EEF3E09150E040F0409F
:10116000E1F700C00000812F0E94780688EF8C0D07
:10117000843020F40E94C2170E94AD05DD2089F062
:101180000E94A00D80FD0DC0F70115820E949A0DEE
:101190000E94AC09C7010E94EE080E949A0D0E94AD
:1011A000BC09CDB7DEB7E8E00C94E7210F931F939D
:1011B000CF93DF93EC01688179818D810E94A20A2F
:1011C0008C010E94F9090E946409B801CE010E94B5
:1011D000DB06DF91CF911F910F910895CF93DF939D
:1011E000FC0124812223D1F0EC010E94030581112E
:1011F0000FC00E94A40D882389F08D81882371F08F
:101200008091A40282FF0AC082E00E94630E06C0A1
:10121000CE010E94D608CE010E94D404DF91CF9166
:10122000089580E090E00E942D1880E090E00E94F8
:1012300052180E94CB0D0E942D0E08950E94D118C5
:101240000E94110908950E94BB0D0E941E09089575
:1012500092959F70963079F010F4925001C09A5098
:10126000923068F4803F69F018F4883E40F409C079
:10127000843F29F406C0883E20F0813F11F080E0D1
:10128000089581E00895FC012481222339F08081B2
:1012900091810E94970A0E942809089580E008958C
:1012A000A6E0B0E0E6E5F9E00C94D1212696E2E074
:1012B0000C94ED21A7E0B0E0E0E6F9E00C94D12138
:1012C0002796E2E00C94ED21089508950E946509A7
:1012D00008950E94660908950E9469099093C501C6
:1012E0008093C40108950E946C0908952091C4015F
:1012F0003091C501822B932B0E946C090895209197
:10130000C4013091C501822393230E946C09089582
:101310002091C4013091C501822793270E946C0956
:1013200008950E94650908950E9491099093C30150
:101330008093C201089580E090E00E94940908958E
:1013400021E030E0A90102C0440F551F8A95E2F761
:10135000CA010E949409089521E030E002C0220FE2
:10136000331F8A95E2F78091C2019091C301822BCD
:10137000932B0E949409089521E030E002C0220FCF
:10138000331F8A95E2F7209530958091C2019091A4
:10139000C301822393230E949409089521E030E041
:1013A00002C0220F331F8A95E2F78091C20190910B
:1013B000C301822793270E94940908952091C201B6
:1013C0003091C301822B932B0E94940908952091A0
:1013D000C2013091C301822393230E94940908958E
:1013E0002091C2013091C301822793270E94940962
:1013F00008950895962F9770A1E001C0AA0F9A95BD
:10140000EAF793E0769567959A95E1F7660F771F6F
:10141000660F771FFA01E60FF71F40E050E0682FD4
:1014200070E090819B01042E02C0369527950A94A6
:10143000E2F72170219529272A23292721934F5F3D
:101440005F4F4430510569F70895FB01782F77709D
:1014500023E0969587952A95E1F7880F991F880FC5
:10146000991FE80FF91F40E050E080E0219130E043
:10147000072E02C0369527950A94E2F7217033278C
:10148000042E01C0220F0A94EAF7822B4F5F5F4FB0
:101490004430510559F70895911109C0811107C0D1
:1014A000862F4EEB51E060E070E00E94FA0908954B
:1014B000911109C0811107C06EEB71E080E090E0EE
:1014C0000E94250A089580E00895A0E0B0E0EBE6D0
:1014D000FAE00C94CA217C010091C2011091C30171
:1014E0008091C4019091C501082B192BCFE0D0E069
:1014F000CC24C394D12CC6010C2E02C0880F991F96
:101500000A94E2F780239123892B21F4219798F7FD
:10151000B12C07C0BC2EB7018C2F0E94651101971A
:10152000A9F38B2DCDB7DEB7E9E00C94E621CF937C
:10153000DF93EC010E94650ABE010E946511DF91F4
:10154000CF9108951F93CF93DF93EB019091BD014D
:10155000992321F0CB010E94970A13C0882349F0F8
:10156000CB010E94650A182F682FCE010E944C0AF9
:1015700004C0CB010E94580A182FBE01812F0E947F
:101580006511DF91CF911F9108951F93CF93DF9342
:10159000C091C60117E08091C701C817A1F0D0E043
:1015A0001C9FF0011D9FF00D1124E853FE4F208178
:1015B0003181428153816481758186810E945A09FB
:1015C0002196C770E8CFDF91CF911F9108952091A8
:1015D0000002309101024091020250910302609199
:1015E000040270910502809106020E945A09089532
:1015F000CF93DF938091060282958F7009F04EC0E1
:1016000080910502882309F449C08091C601409168
:10161000C7015091010260910002C0910202D09175
:10162000030277E08417D1F190E0789FF001799F71
:10163000F00D1124DF01A853BE4F14962C9114977E
:10164000222349F111962C911197251324C02C9136
:10165000261321C015962C91159721111CC01296A6
:101660002D913C9113972C1B3D0B283C310598F490
:10167000809106028F70806180930602E253FE4FD4
:1016800080818F708061808380E092E00E94EE080C
:101690000E94C50A03C001968770C4CFDF91CF9125
:1016A00008952091C6019091C70157E02917A9F02C
:1016B00030E0529FF001539FF00D1124E853FE4F8C
:1016C0007181761306C07081781303C0758174131D
:1016D00006C02F5F3F4F2770E9CF80E0089581E07B
:1016E0000895A4E1B0E0E7E7FBE00C94C7218C018A
:1016F00086E0F801DE011F9601900D928A95E1F7D0
:10170000F8018481E58090E0A92E92E0B92E9091B5
:101710000402911118C0882309F480C1EE20D9F188
:10172000C8010E944309F82E8823A9F187E0F80137
:10173000D50101900D928A95E1F7C5010E941D0621
:101740000E94F80A98C0F801C080D18082809380FE
:10175000F09005022091020230910302A401421B85
:10176000530BFF2009F406C1483C510508F0AFC0F7
:10177000882309F455C180910602282F207F90917B
:101780000102222361F09D1509F462C0C8010E9484
:101790004309811173C0C8010E94EE083FC19D1129
:1017A00015C0909100029C1111C0E1100FC08F7004
:1017B0008061809306020E94E70A80E092E00E9426
:1017C000EE0880910602F801868326C1E1103AC036
:1017D00040E06D2D8C2D0E94510B40E06D2D8C2D25
:1017E0000E94510BE82E811117C1CF86D88A8F85B0
:1017F00098890E94970A292F22952F70243020F46F
:101800009F70223028F009C02A50223080F014C086
:10181000992349F0811107C013C0992321F0F801E1
:101820009681907F69F0805E883030F409C0803FF7
:1018300038F0815F833020F0C8010E94EE08EF2C61
:10184000FE2CEEC080910602816080930602E4C007
:10185000909100029C119ACFE11098CFF8018683F5
:10186000C8010E94EE0887E0F801A0E0B2E0019014
:101870000D928A95E1F70E94E70AD2C0EE2009F4A2
:101880008ACF20910602822F82958F7090E0029776
:101890008CF08091000290910102998788879B8645
:1018A0008A86809104028C871D862E87CE01089639
:1018B0000E94EE0887E0F801A0E0B2E001900D92EE
:1018C0008A95E1F70E94F80A0E94E70AA7C0909162
:1018D0000602292F207FA1F4682D9A8A898AA60101
:1018E0007A899E2D0E94500980E092E00E94EE08C5
:1018F00087E0F50111928A95E9F70E94E70A8CC00A
:10190000882309F48DC0809101028D1111C080914E
:1019100000028C110DC0E1100BC0F8019683C801C4
:101920000E94EE0887E0F50111928A95E9F778C0E8
:10193000C8010E944309882309F42DCFEE2009F441
:101940002ACF20910602822F82958F7090E0029715
:101950000CF4B0CF80910002909101029A838983A8
:101960009C828B82809104028D831E822F83CE0104
:1019700001969ECF483C510508F040C0882309F4E9
:101980004DC0FE2CEE2009F406CF809101028D118E
:1019900027C0809100028C1123C09091060290FD17
:1019A00016C0892F82958F70282F30E021153105C0
:1019B00071F0F80196832F30310509F451CF8F5F14
:1019C000982F9295907F86818F70892B48CF87E0E2
:1019D000F801A0E0B2E001900D928A95E1F720C0F5
:1019E000C8010E944309811165CF80910602816080
:1019F00080930602C8010E94EE0812C0682D9A8AE0
:101A0000898AA6017A899E2D0E94500987E0F501F6
:101A100011928A95E9F72FCFF12C02C0FF24F3949D
:101A20008F2D6496ECE00C94E321AEE0B0E0EBE1A6
:101A3000FDE00C94D021288739874A875B876C8723
:101A40007D878E87CE0108960E94710B882361F0F6
:101A50006C856623A9F1288539854A855B857D8556
:101A60008E850E945A092CC087E0FE013896DE015F
:101A7000119601900D928A95E1F76C85662301F12C
:101A80002091C70130E0C9010196877099274091E4
:101A9000C60150E084179507E1F16D8397E0929FAE
:101AA000D001939FB00D1124A853BE4FFE01319673
:101AB00001900D929A95E1F78093C7010E94C50AA3
:101AC00017E08091C6019091C701891779F1189F9D
:101AD000C001112488539E4F0E94710B882331F15D
:101AE000E091C6011E9FF0011124E853FE4F2081B2
:101AF0003181428153816481758186810E945A09B6
:101B00008091C60190E00196877099278093C60165
:101B1000D8CF0E9423091092C7011092C601E0E0BD
:101B2000F2E087E0DF011D928A95E9F72E96E3E067
:101B30000C94EC2180910F028695869586950895E8
:101B400080910F028770089590910F02977081E045
:101B500009F480E0089580911B02089590911B0282
:101B6000892B80931B020895809590911B028923F5
:101B700080931B02089510921B02089590911A02FF
:101B8000892B80931A020895809590911A028923D7
:101B900080931A02089510921A02089508950E94DF
:101BA000CE0D08950E94CF0D089590911102292F16
:101BB0002823821729F0982B909311020E94D20DAE
:101BC000089590911102292F282331F080958923BF
:101BD000809311020E94D20D0895809111028823F2
:101BE00029F01092110280E00E94D20D08950F9307
:101BF0001F93CF93DF930091050110910601C091CF
:101C00001B0280911A02C82B80911102882331F0A7
:101C1000C82B0E94771881110E94ED0DF801C08336
:101C2000C0910501D091060148E050E067E072E004
:101C3000CE010E94F821892B59F088E0FE01A7E02F
:101C4000B2E001900D928A95E1F7CE010E94D21781
:101C5000DF91CF911F910F9108950E94F70D089584
:101C60000E94CE0D08950E94300E089590911002AA
:101C7000292F282331F080958923809310020E9418
:101C8000330E08950E94CE0D08959091A40292FF04
:101C900011C098E0899F90011124262B20930F02F8
:101CA0000E94AC0980910F028695869586950E94C8
:101CB000420E08950E94AC09089510920F0280E030
:101CC0000E94420E089590910F028095892380937F
:101CD0000F02282F277069F4981759F09091A402E9
:101CE00092FF07C08695869586950E94BC090E9442
:101CF0005D0E0895CF939091A40292FB222720F9C4
:101D00002817F9F0C82F892FC0FB82F98093A4020D
:101D10008091A3029091A4020E94D60E82E00E94BC
:101D2000630E80912B0280FF0CC01F92CF9382EB39
:101D300091E09F938F930E94B0020F900F900F90AD
:101D40000F90CF9108958091A40282FB882780F99B
:101D500091E089270E947A0E089581E00E947A0E10
:101D6000089580E00E947A0E08956FEF7FEF80E083
:101D700090E00E945022089580E090E00E941C2292
:101D800021E0863E9E4F09F020E0822F089582E0F8
:101D900090E00E940E22089583E090E00E940E22BF
:101DA000089584E090E00E941C220895BC0184E024
:101DB00090E00E94502208958FE090E00E94162249
:101DC0000895AB01BC018FE090E00E944422089589
:101DD000AB01BC0183E190E00E944422089560E0E1
:101DE00070E0CB010E94E80E0895A8E0B0E0EBEFB0
:101DF000FEE00C94D12166EE7EEF80E090E00E9440
:101E0000502260E082E090E00E94322281E090E087
:101E10009093C5018093C40161E083E090E00E944B
:101E2000322260E074E184E090E00E94502260E0A1
:101E300086E090E00E94322260E087E090E00E941D
:101E4000322240E050E0BA0188E090E00E94442253
:101E500060E084E290E00E94322260E087E190E05E
:101E60000E94322260E08CE090E00E94322260E02A
:101E70008DE090E00E94322219821A821B821C821D
:101E80001D821E821F82188648E050E068E170E0E3
:101E9000CE0101960E94222240E050E0BA0180E289
:101EA00090E00E9444220E9428032896E2E00C94CD
:101EB000ED210E94F50E0895682F8EE090E00E94BB
:101EC00032220895A6E0B0E0E8E6FFE00C94CF21CE
:101ED0000E94B2198C0180911C0290911D0208177A
:101EE000190781F019821A820E94B219682F49815C
:101EF0005A81792F80E090E00E94EA0510931D023C
:101F000000931C022696E4E00C94EB210E94BE197B
:101F100060932702709328028093290290932A02EB
:101F200060932302709324028093250290932602EB
:101F300008950E94BE19609327027093280280932F
:101F4000290290932A0260931F02709320028093CB
:101F5000210290932202089581E0089581E008957E
:101F60000E94AE0F089508950E94B30F08950E9435
:101F70001D0408950E94B30F08950E94B30F0895A1
:101F800082EE9BE10E9409130E94BD0F0E94ED02A8
:101F900008950E94B40F0E94B30F08950E94BC0ED2
:101FA000811102C00E94590F0E94C70E80932B021C
:101FB0000E94D10E9093A4028093A3020E94CC0EA3
:101FC00090E00E9473098091C2019091C3010E9428
:101FD000910908950E94A9190E949A120E94CE0F99
:101FE0000E94AC050E942A130E94B70F0895A6E034
:101FF000B0E0EDEFFFE00C94CF210E94AC0F811117
:1020000003C00E94620F2EC00E94A61210911E02F1
:1020100080E00E9455121817A1F380912B0281FDD8
:102020000E945B120E94B00F082F80E00E945512A0
:10203000182F80911E02812799F080FF0FC0002386
:1020400069F019821A820E94B219682F49815A8157
:10205000792F81E0912F91700E94EA0510931E0262
:102060000E94860F0E947F1381110E94990F0E9487
:10207000BF052696E4E00C94EB211F93CF93DF93EA
:102080000E946A11EC01C11580E5D807E8F5C11579
:1020900090E4D90708F0A8C0C03ED10530F5CD3C8A
:1020A000D10508F094C0C83AD10578F4C53AD105F5
:1020B00008F083C0C130D10509F47CC008F4F2C037
:1020C000C430D10508F0F1C0EDC0C33CD10508F023
:1020D000E9C0C85AD0E0CC0FDD1FC45ADE4F0990CA
:1020E000D881C02DCE019464E1C0C11580E2D8072B
:1020F00008F0CBC0C11591E0D90708F06BC0C83E0D
:10210000D10508F4D2C0CEC0C03682E5D80728F584
:10211000C03492E5D90708F079C0C03282E5D8070B
:1021200008F06CC0C11592E5D90708F481C04C2FA6
:102130004695469580E2489FA0011124C37021E096
:1021400030E0C90102C0880F991FCA95E2F7EA0181
:10215000C82BD92BCE019D68A9C0C03A82E5D8070B
:10216000B8F48C2F8F71C03892E5D90708F07BC086
:102170008695869590E2899F90011124C37081E035
:1021800090E002C0880F991FCA95E2F79A6868C06C
:10219000C03C82E5D80708F46DC0C03E92E5D9077F
:1021A00008F080C0CF71DD27DC2FCC27CE01806FF7
:1021B000906A7CC081E090E079C0C55AD0E0CE56EC
:1021C000DE4F8881C82FD0E0CE0190646FC0CE0171
:1021D00090656CC08D2F0E940612182FCE01992792
:1021E0000E946A111F715CC0CE0199270E946A117A
:1021F000CC27DF70D06A8C2B9D2B58C0CF71D0E0DC
:10220000DC2FCC27CE01816F906A50C08C2F8F714C
:102210008695869590E2899F90011124C37081E094
:1022200090E002C0880F991FCA95E2F79C6818C019
:102230008C2F8F710E94061295E0D695C7959A95BE
:10224000E1F7CF70D0E0DC2FCC27282F30E084FFDF
:1022500005C084E0220F331F8A95E1F7D069CE01D3
:10226000822B932B23C090E0D82FCC27CE01846FF4
:10227000906A1CC08C2F8F710E9406128F7190E0A3
:10228000D82FCC27CE01906211C08D2F8F710E9464
:102290000612182FCE0199270E946A111F719062B1
:1022A000912B04C080E090E001C0CE01DF91CF917E
:1022B0001F910895711106C0611104C040E00E9491
:1022C0007B04089580E090E008950E945A110E94D6
:1022D0003D1008958238910569F1B0F4813391057C
:1022E00009F475C048F48932910509F467C08A324F
:1022F000910509F471C008958533910509F459C019
:1023000089339105B9F00895833E910589F138F438
:10231000803E9105D1F0823E910529F10895863ED7
:102320009105C9F1873E9105D9F1843E910509F0E7
:102330006CC027C02091A30220FD57C021FD55C0CD
:102340002091A40223FD5BC008958091A30280FD2B
:1023500048C08091A40280FF48C08091A30284FD00
:1023600046C083EE51C08091A30282FF3CC0F5CFEE
:102370008091A30282FD37C08091A40280FD35C008
:10238000ECCF8091A40281FF36C08091A30284FD2E
:102390002EC087EE39C08091A30283FF2AC0F5CFFB
:1023A0008091A30283FD25C08091A40281FD23C0FA
:1023B000ECCF8091A30285FD22C01FC08091A302B3
:1023C00085FD1BC08091A40283FF19C00AC08091C3
:1023D000A30286FD16C017C08091A30286FD13C01C
:1023E00010C089E311C082EE0FC080EE0DC080E006
:1023F0000BC086EE09C084EE07C085E305C089E204
:1024000003C08AE201C081E390E008959091A302A5
:1024100092FF10C041E0282F2471243009F040E0E1
:1024200031E0282F2871283009F030E0431711F0EF
:102430002CE0822793FF10C041E0282F2471243123
:1024400009F040E031E0282F2871283109F030E010
:10245000431711F02CE082273091A40230FF10C006
:1024600051E0282F2171213009F050E041E0282F60
:102470002871283009F040E0541711F029E0822734
:1024800031FF10C041E0282F2171213109F040E0D7
:1024900031E0282F2871283109F030E0431711F07E
:1024A00029E0822794FD877E0895E82FF0E0EA5521
:1024B000FD4F8081089586ED91E09F938F930E9458
:1024C000B0021F921F9281ED91E09F938F930E9423
:1024D000B0028EEC91E09F938F930E94B0028091A6
:1024E000A6020E9489051F928F9389EC91E09F9329
:1024F0008F930E94B00287EC91E09F938F930E948C
:10250000B0028DB79EB70E960FB6F8949EBF0FBE61
:102510008DBF089508950E948A1208950E948B121B
:1025200008950E948A1208950895860F911DFC0156
:10253000108208950E9494121092A6021092A50291
:1025400081E00E94CB120E9437030895A1E0B0E021
:10255000ECEAF2E10C94D021198260E0CE01019600
:102560000E9495129091A502898121E0981301C0E3
:1025700020E098138093A50241E066EA72E085EAC4
:1025800092E00E94CC12182F0E948E12812F219669
:10259000E3E00C94EC210895EF92FF920F931F93C8
:1025A000CF93DF93222391F08B017C01C42FD0E0E5
:1025B000AE01BC01C8010E94F821892B39F0AE019F
:1025C000B701C8010E94052281E001C080E0CDB7BB
:1025D000DEB7E6E00C94E9210E945F1C0E94EA0F3E
:1025E0000E946C1C08950E94711C0E94F70F0E94AB
:1025F000991C08950E9449190E94451C0E94C00F11
:102600000E94EC120E94F3120E94F4150E94C90F5E
:10261000F9CF9093AD018093AC0108950895ACE09B
:10262000B0E0E5E1F3E10C94D1210E94A20380E047
:1026300090E02C96E2E00C94ED2121E030E001C026
:10264000220F4A95EAF7662311F0822B0895209510
:1026500082230895E0919501F091960109950E94D9
:10266000E1020E940E130895CF936CE272E083E3BF
:1026700092E00E94DC18C82F882321F083E392E0C7
:102680000E941F189091340286E0E3E3F2E0DF013C
:10269000282F1D922A95E9F790933402ACE2B2E01C
:1026A00001900D928A95E1F781E0C11103C091116B
:1026B00001C080E08170CF910895ACE0B0E0E3E626
:1026C000F3E10C94D1214F8358878B879C877195B8
:1026D00079876A8786E0FE013796DE0111960190C0
:1026E0000D928A95E1F729813A814B815C816D8158
:1026F0007E8180E090E02C96E2E00C94ED21E09168
:102700009701F09198014091330250913402609109
:102710003502709136028091370290913802099506
:10272000F42FE52FCB012093330230933402F09342
:102730003502E09336026093370290933802A90184
:102740006F2F7E2F0E945D13F42FE52FCB01209376
:10275000330230933402F0933502E09336026093F3
:10276000370290933802A9016F2F7E2F0E940F131A
:102770002093330230933402409335025093360253
:1027800060933702709338020E943413811103C0A2
:102790008091320202C081E090E01092320281709A
:1027A0000895E0919901F0919A01099508959C018D
:1027B000215D31092830310550F44FE2480F8091F6
:1027C00034020E941D13809334020E943413089532
:1027D000ACE0B0E0EEEEF3E10C94CF214F835887EC
:1027E0008B879C87162F072F0E947414811104C0B9
:1027F000911102C0902F812F89879A8786E0FE0170
:102800003796DE01119601900D928A95E1F72981A4
:102810003A814B815C816D817E8180E090E02C96D5
:10282000E4E00C94EB212C9808952C9A08953E989E
:10283000469898E080E02F9825E02A95F1F700006F
:1028400026B126FB222720F9880F822B2F9A25E01C
:102850002A95F1F70000915071F708953E9A27E00C
:1028600030E090E02F98AC01022E02C055954795BC
:102870000A94E2F740FF02C0469A01C046984AE037
:102880004A95F1F700C02F9A2150310958F785E198
:102890008A95F1F700000895CF93C82F0E94131472
:1028A0008C2F0E942E140E941714C82F85E08A9541
:1028B000F1F700000E9415148C2FCF910895CF934B
:1028C000DF93D82FC62F0E9413148D2F80680E948B
:1028D0002E148C2F0E942E140E941514DF91CF917C
:1028E000089587FD80680895CF93DF930E941314A5
:1028F00083E60E942E140E941714C82F0E941714FA
:10290000D82F0E9415148C2F0E947114C82F8D2F60
:102910000E947114982F8C2FDF91CF910895279AE0
:102920003E9A249A6AE58AE30E945F142FE78FEAB1
:1029300092E0215080409040E1F700C000000E94EA
:10294000741408958D37910548F0863D26E092076E
:1029500038F46DE770E00E94A72103C061E001C078
:102960006DE0606189E10E945F14089589E10E9431
:102970004C1480712DE7829FC001112408958F921D
:102980009F92AF92BF92EF92FF920F931F93CF93BC
:10299000DF9349015A01009711F480E049C06115A5
:1029A0007105D9F3232B242B252BB9F30115110520
:1029B000A1F3AC0120E030E0EA01475F5F4FE8811E
:1029C000E1112CC0209185022F5F20938502322FC8
:1029D000332351F1FC0140E050E03996DF011997B3
:1029E000AC91A31709F14F5F5F4F46175707A9F73F
:1029F0003093850238830E94BE19DC01CB01880D1B
:102A0000991DAA1DBB1D89839A83AB83BC831E833A
:102A10000D83F886EF82809185020AC02F5F3F4FB9
:102A20002617370749F6B9CF3F5F2313D1CFB5CF6C
:102A3000DF91CF911F910F91FF90EF90BF90AF90DA
:102A40009F908F900895A0E0B0E0E9E2F5E10C944A
:102A5000CB21009739F16115710521F1011511059F
:102A600021053105F9F04423E9F0E0E0F0E0EC0164
:102A70000996DC0119975C91451310C06801790132
:102A80000E94BE1997018601060F171F281F391FC4
:102A900009831A832B833C8381E005C03196E617B6
:102AA000F70729F780E0CDB7DEB7E8E00C94E7211F
:102AB0004F925F926F927F928F929F92AF92BF924E
:102AC000DF92EF92FF920F931F93CF93DF938C01CE
:102AD0007B01EA010E94BE194B015C01888199814A
:102AE000AA81BB81A5019401281B390B4A0B5B0B02
:102AF00012161306140615060CF045C0888299823A
:102B0000AA82BB82E80100E010E00E151F05D9F192
:102B1000D880DD20A1F169817A818B819C812B0194
:102B20003C01481859086A087B0814141504160457
:102B300017042CF14F815885ED81FE81099528817C
:102B4000D2121DC0611571058105910579F049808A
:102B50005A806B807C80DC01CB01840D951DA61D05
:102B6000B71D89839A83AB83BC8309C018821982FD
:102B70001A821B821C821E821D8218861F820F5F92
:102B80001F4F2996C2CFDF91CF911F910F91FF90D8
:102B9000EF90DF90BF90AF909F908F907F906F905D
:102BA0005F904F900895EF92FF920F931F937901DA
:102BB0008A019B01AC0168E070E089E392E00E9429
:102BC000BF141F910F91FF90EF9008950F931F93E3
:102BD0008A019B01482F68E070E089E392E00E943F
:102BE00023151F910F91089541E852E068E070E0CD
:102BF00089E392E00E9458150895CF93DF938631C0
:102C00009C4709F5EB010E94AB0D9D81992371F062
:102C10008A7A91E009F490E090938602811102C0D3
:102C200089E201C085E30E94C11809C08091860233
:102C3000811102C089E201C085E30E94C9180E9487
:102C40002D0E80E001C081E0DF91CF910895CF93F8
:102C5000DF93FC01DB0115968C91882309F4DDC01C
:102C60009F0130572332310508F0D8C0EF010E9490
:102C7000D10E9093A4028093A302FE01E150F0478D
:102C8000E232F10520F4EE59FF4F0C94BB21809104
:102C9000A3028160AAC08091A4028860B2C0809122
:102CA000A3028260A2C08091A30220C08091A302EF
:102CB00088609BC08091A4021EC08091A4028260A3
:102CC000A0C08091A302806190C08091A302806225
:102CD0008CC08091A302806488C00E9423098091E7
:102CE000A302806882C08091A302886084607DC056
:102CF0008091A4028260816084C08091A3028E7F53
:102D000074C08091A402877F7CC08091A3028D7FD4
:102D10006CC08091A30220C08091A302877F65C010
:102D20008091A4021EC08091A4028D7F6AC0809110
:102D3000A3028F7E5AC08091A3028F7D56C08091DE
:102D4000A3028F7B52C00E9423098091A3028F7738
:102D50004CC08091A302877F8B7F47C08091A402E3
:102D60008D7F8E7F4EC08091A30282FB222720F9A7
:102D700091E0922790FB82F990FB83F936C0809115
:102D8000A402982F909591708E7F892B90FB81F9EA
:102D900038C08091A30286FB222720F991E0922778
:102DA00090FB86F922C00E9423098091A30287FB31
:102DB000222720F991E0922790FB87F916C081E045
:102DC00001C080E00E945C0F1EC08091A30284FBC2
:102DD000222720F991E0922790FB84F906C0809188
:102DE000A302982F909590FB80F98093A3020BC0CB
:102DF0008091A40283FB222720F991E0922790FB87
:102E000083F98093A4028091A3029091A4020E946E
:102E1000D60E0E94230980E001C081E0DF91CF91AE
:102E200008950F931F93CF93DF93C42FD22FFC01EC
:102E300085818823B1F0409389020E94B219909352
:102E400088028093870280E28C0F883008F04DC0A2
:102E5000C77081E001C0880FCA95EAF70E94CD06CD
:102E600044C080918902481330C0809187029091BC
:102E700088020E94CA19883C910538F510E21D0F9E
:102E8000CD17B9F080E28C0F883040F4C77081E034
:102E900001C0880FCA95EAF70E94D406183010F5D1
:102EA00081E09D2F977001C0880F9A95EAF70E94E4
:102EB000CD06802F0E94C3061830B8F4D77081E089
:102EC00001C0880FDA95EAF70AC080E28C0F8830DB
:102ED00060F4C77081E001C0880FCA95EAF70E94CC
:102EE000D40603C0802F0E94C306DF91CF911F91AB
:102EF0000F9108950F93FC01E851FC47E730F1056D
:102F000090F5CB01EC57FF4F0C94BB2106E221EE6C
:102F100041EE6AE17CE723C007E225EE45EE6BE176
:102F20007CE71DC006E221EE40EE68E17CE717C0B9
:102F300007E225EE44EE69E17CE711C006E221EEEE
:102F400042EE6CE17CE70BC007E225EE46EE6DE158
:102F50007CE705C008E221E045EE6EE17CE70E94D7
:102F6000111780E008C0FB018581882319F01092B9
:102F7000890201C081E00F91089590938F028093A0
:102F80008E020895E0918E02F0918F02309729F021
:102F90000190F081E02D0995089580E008950E9448
:102FA000C2170895EF92FF921F93CF93DF93E091A2
:102FB0008E02F0918F023097E1F1EC010280F381F3
:102FC000E02D099580912B0282FF33C080FF0DC058
:102FD00088811F928F938DEE91E09F938F930E9433
:102FE000B0020F900F900F900F9016E087EEE82E32
:102FF00081E0F82E80912B0280FF0BC08A811F9206
:103000008F93FF92EF920E94B0020F900F900F905B
:103010000F90115021961111EDCF80912B0280FF5E
:1030200008C085EE91E09F938F930E94B0020F90AD
:103030000F90DF91CF911F91FF90EF900895E09155
:103040008E02F0918F02309739F022E0DC012C9350
:103050000680F781E02D09950895A3E0B0E0E3E351
:10306000F8E10C94D12120918C0230918D02281727
:103070003907A1F090938D0280938C02E0918E022B
:10308000F0918F02309751F023E029839B838A834C
:103090000084F185E02DCE01019609952396E2E0AA
:1030A0000C94ED21A3E0B0E0E8E5F8E10C94D12127
:1030B00020918A0230918B0228173907A1F0909352
:1030C0008B0280938A02E0918E02F0918F023097FA
:1030D00051F024E029839B838A830084F185E02DCD
:1030E000CE01019609952396E2E00C94ED21E09142
:1030F0000501F0910601329697E080E0915029F0A9
:1031000021912223D9F38F5FF9CF0895882371F09D
:103110002091050130910601F9013296285F3F4F59
:103120009191891729F0E217F307D1F780E008950C
:1031300081E008959C01FC0132969FEF80E041916F
:10314000461789F09F3F19F4411101C0982F8F5FF6
:103150008630A9F79F3F39F0F901E90FF11D97FD7E
:10316000FA956283089508959C012A5F3F4FFC0100
:103170004281461301C01282019682179307B9F764
:103180000895682F80910501909106010E949A1878
:103190000895682F80910501909106010E94B4184E
:1031A0000895E0910501F0910601329686E0DF0175
:1031B0001D928A95E9F70895DC01FB0111969C9117
:1031C00011978181981321C012968C9112978823B0
:1031D00019F09281891319C013968C911397882343
:1031E00019F09381891311C015968C911597882336
:1031F00019F09581891309C014969C91992339F08F
:1032000081E02481291304C002C081E001C080E074
:103210008170089508950E940A19089583E08093AB
:1032200090020E940B190895811102C081E001C033
:1032300082E0809390020E940B1908950E94141955
:10324000089581E0809390020E940B1908950E94D6
:103250002119089508950E942A1908950E942B1992
:1032600008950E942A1908950E942A1908950E941B
:103270002A1908950E9434190E94A6120E94311939
:1032800080E00E94551291E0811101C090E0892FE9
:10329000089585B7806885BF85B7806885BF089524
:1032A0001F920F920FB60F9211248F939F93AF939B
:1032B000BF9380919102811113C08091A7029091D8
:1032C000A802A091A902B091AA024196A11DB11D28
:1032D0008093A7029093A802A093A902B093AA0298
:1032E000BF91AF919F918F910F900FBE0F901F9044
:1032F00018958091AF02843031F10E947D051092C3
:10330000910220E488E190E00FB6F894A8958093AC
:1033100060000FBE2093600083B7817F846083BF0D
:1033200083B7816083BF7894889583B78E7F83BF8E
:103330000FB6F894A8958091600088618093600032
:10334000109260000FBE08950E9423090E94840518
:10335000089582E084BD93E095BD9AEF97BD809378
:103360006E0008952FB7F8948091A7029091A8025B
:10337000A091A902B091AA022FBF08952FB7F89487
:103380006091A7027091A8028091A9029091AA026F
:103390002FBF08959C014FB7F8948091A702909198
:1033A000A802A091A902B091AA024FBF821B930B61
:1033B000089578941F920F920FB60F9211248F9355
:1033C0009F93AF93BF938091A7029091A802A09181
:1033D000A902B091AA020196A11DB11D8093A70276
:1033E0009093A802A093A902B093AA02BF91AF91B3
:1033F0009F918F910F900FBE0F901F90189581E0B5
:103400008093E00080E28093D8001092C9008FE1A1
:103410009EE40197F1F700C0000087E090EBDC012B
:103420008093B8029093B902A093BA02B093BB0202
:103430009CE088E10FB6F894A895809360000FBED9
:1034400090936000FFCF9CE088E10FB6F894A895B8
:10345000809360000FBE90936000FFCF80919D022B
:10346000089508959B019091AF029430F1F48F700C
:103470008093E9008FEF9091E800815095FD06C0A0
:1034800095ED9A95F1F700008111F5CF8091E80054
:1034900085FF0BC0BA01C90140E050E00E940E1D3B
:1034A0008091E8008E778093E800089543E050E033
:1034B000BC0182E00E94321A089546E050E0BC014F
:1034C00082E00E94321A0895CF93DF93EC0148E026
:1034D00050E0BC0181E00E94321A88E0FE01A5E9BB
:1034E000B2E001900D928A95E1F7DF91CF910895B6
:1034F0008CE292E09F938F930E94B0028091AE0283
:103500000F900F90811109C00E94991E0E94F61E13
:103510008091E20084608093E200089588E292E066
:103520009F938F930E94B0021092AE020F900F9063
:10353000089584E292E09F938F930E94B0020E94CC
:1035400027190F900F90089580E292E09F938F9338
:103550000E94B0026091AB0281E0611101C080E085
:103560000E940E190F900F9008958CE192E09F93A6
:103570008F930E94B0029091AF0281E0943009F0E5
:1035800080E06091AB020E9414190F900F90089593
:10359000209193022F5F822F62E30E949B21992347
:1035A00019F020939302089510929302809194024F
:1035B000882371F18091AF02843041F58091E90058
:1035C0008F702091EC00922F917020FD90E8892B54
:1035D00093E09093E9009091EB0090FF14C09091DC
:1035E000EE0097FF10C09091E80095FF03C0109285
:1035F000F100F9CF9091E80090FF05C09091E800AC
:103600009E779093E8008F708093E9001092940267
:10361000089542E061EC81E00E94121E42E261ECFA
:1036200082E00E94121E42E261EC83E00E94121EC0
:103630009091AF0281E0943009F080E06091AB029C
:103640000E941E1908958091B102833009F461C06F
:1036500030F4813071F0823009F49BC008958A30D3
:1036600009F487C08B3009F46CC0893009F0A9C017
:1036700020C08091B002813A09F0A3C08091E80097
:10368000877F8093E8008091B4029091B502892BE6
:1036900021F468E085E992E003C060E080E090E01A
:1036A00070E00E94531D8091E8008B778093E800C2
:1036B00008958091B002813209F083C08091B402F4
:1036C0009091B502029708F07CC08091E800877F56
:1036D0008093E8008091E80082FD05C08091AF02F0
:1036E0008111F8CF6EC02091F3008091F20090E03C
:1036F000922B029731F48091F100813011F08630E5
:1037000021F48091F10080939D028091E8008B77F5
:1037100054C08091B002813A09F053C08091B40244
:103720009091B502892B09F04CC08091E800877F09
:103730008093E8008091E80080FFFCCF8091110128
:1037400037C08091B0028132E1F58091B40290914E
:10375000B502892BB1F58091E800877F8093E8005E
:103760000E94471E8091B202809311010E9423099A
:1037700008958091B002813221F58091E800877F21
:103780008093E8000E94471E8091B30280939E02BE
:1037900008958091B002813AA1F48091E800877F7A
:1037A0008093E8008091E80080FFFCCF80919E022A
:1037B0008093F1008091E8008E778093E8000E946A
:1037C000471E08959FB7F894109294029FBF90915E
:1037D000AF02943009F057C09091E9009F7030918A
:1037E000EC00232F217030FD20E8922B23E0209362
:1037F000E9002091EB0020FF43C02091EE0027FF5D
:103800003FC020919202222321F02091E80025FF61
:1038100037C01092920226E03091E80035FD15C0C5
:103820003091AF02343061F53091EB0035FD28C0A6
:10383000215021F481E08093920222C0EFE9FFE061
:103840003197F1F700C00000E7CF8093F10080913D
:10385000E80085FD0AC08091E80080FFFCCF8091E0
:10386000E8008E778093E80006C08FB7F89421E0D7
:10387000209394028FBF9F709093E90080E0089599
:103880009F709093E9008FEF089584B7877F84BF7E
:103890000FB6F894A89580916000886180936000CD
:1038A000109260000FBE90E080E80FB6F89480930D
:1038B0006100909361000FBE0E94211908950E943B
:1038C000991E0E94F61EE2EEF0E080818460808303
:1038D00078940E948021089587E091E00E94BD17AE
:1038E00008958091AF02853019F580912B0280FFF9
:1038F0000FC086E092E09F938F930E94B0020F90DA
:103900000F9006C00E9479198091AD02811105C007
:103910008091AF028530B1F309C00E943A19882323
:10392000B9F30E94F81C0E942309F2CF0E94A41947
:10393000089508959A014091B6025091B7020E94ED
:10394000A21C0895492F552743305105C9F060F452
:103950004130510581F04230510509F041C084E504
:1039600090E048E652E040C041325105E1F0423279
:10397000510531F135C082E190E04CEB52E034C0AA
:1039800099278130910549F028F0029749F5E0E345
:10399000F2E005C0E4E6F2E002C0E0E5F2E0849186
:1039A00090E0AF0121C063307105D0F4660F771F3E
:1039B000FB01EA55FE4F4081518189E090E014C03F
:1039C0006330710568F4FB01EE0FFF1FE056FE4FF8
:1039D00040815181FB01E356FE4F808190E004C09D
:1039E00080E090E040E050E0F90151834083089589
:1039F00080E189BD82E189BD09B400FEFDCF8091DF
:103A0000D8008F7D8093D8008091E0008260809301
:103A1000E0008091E00081FDFCCF0895A0E0B0E0DF
:103A2000E4E1FDE10C94CB21EC018B017A010E94D1
:103A3000661E811133C0E114F10439F0F701808171
:103A40009181081B190BC80FD91FC12CD12C01154E
:103A5000110519F18091E80085FD16C08091E800FC
:103A60008E778093E800E114F10449F0F70180813A
:103A70009181C80ED91ED182C08285E00FC00E94FC
:103A8000661E882321F30AC089918093F1000150BA
:103A90001109FFEFCF1ADF0ADACF80E0CDB7DEB72A
:103AA000E8E00C94E7212091B6023091B702261786
:103AB000370748F06115710539F42091E8002E7739
:103AC0002093E80001C0B901FC0120E061157105F7
:103AD00079F18091AF028823F1F18530F1F1809185
:103AE000E80083FD3CC08091E80082FD2EC08091FB
:103AF000E80080FFEBCF2091F3008091F20090E08E
:103B0000922B6115710551F08830910538F421919F
:103B10002093F100615071090196F3CF21E00897DD
:103B200009F020E08091E8008E778093E800CECF06
:103B30002111CFCF0AC08091AF02882361F0853078
:103B400061F08091E80083FD0AC08091E80082FF67
:103B5000F2CF80E0089582E0089583E0089581E047
:103B600008952091B6023091B7022617370748F022
:103B70006115710539F42091E8002E772093E80053
:103B800001C0B901FC0120E06115710591F180913E
:103B9000AF02882309F440C0853009F43FC080910A
:103BA000E80083FD3DC08091E80082FD2FC0809138
:103BB000E80080FFE9CF2091F3008091F20090E0CF
:103BC000922B6115710559F08830910540F42491CC
:103BD0002093F1003196615071090196F2CF21E0F6
:103BE000089709F020E08091E8008E778093E80044
:103BF000CBCF2111CCCF0AC08091AF02882361F0D6
:103C0000853061F08091E80083FD0AC08091E80072
:103C100082FFF2CF80E0089582E0089583E0089566
:103C200081E00895982F973068F59093E9009817F0
:103C300039F07091EC002091ED005091F00003C03C
:103C4000242F762F50E021FD02C09F5FECCF3091F2
:103C5000EB003E7F3093EB003091ED003D7F3093E1
:103C6000ED003091EB0031603093EB007093EC008D
:103C70002093ED005093F0002091EE0027FDE5CF5A
:103C800080E008958F708093E90081E0089580912D
:103C9000B00287FF11C08091E80082FD05C08091CD
:103CA000AF028111F8CF11C08091E8008B770BC073
:103CB0008091AF02882349F08091E80080FFF8CF1F
:103CC0008091E8008E778093E80008952091E400C9
:103CD0003091E50095E64091EC00842F817040FF23
:103CE00023C08091E80080FD1DC08091AF02882331
:103CF00099F0853099F08091EB0085FD11C04091DD
:103D0000E4005091E5002417350729F3915011F094
:103D10009A01E1CF84E0089582E0089583E0089558
:103D200081E0089580E008954091E80042FFDDCFF2
:103D300008950E94081F0E94101FE0EEF0E08081AD
:103D400081608083E8EDF0E080818F77808319BC0B
:103D5000A7EDB0E08C918E7F8C9380818F7E8083E5
:103D60001092AE0208950F931F93CF93DF930E949A
:103D7000081F0E94101FC8EDD0E088818F778883CC
:103D800088818068888388818F7D888319BC1092A0
:103D9000AF021092AB021092AD021092AC0200EE94
:103DA00010E0F80180818B7F808388818160888327
:103DB00042E060E080E00E94121EE1EEF0E08081CF
:103DC0008E7F8083E2EEF0E080818160808380815D
:103DD00088608083F80180818E7F80838881806104
:103DE0008883DF91CF911F910F910895E8EDF0E066
:103DF00080818F7E8083E7EDF0E080818160808329
:103E000084E082BF81E08093AE020E94B31E0895D9
:103E1000E8EDF0E080818E7F80831092E2000895CB
:103E20001092DA001092E10008951F920F920FB6DF
:103E30000F9211242F933F934F935F936F937F9330
:103E40008F939F93AF93BF93EF93FF938091E10084
:103E500082FF0BC08091E20082FF07C08091E100E9
:103E60008B7F8093E1000E94C81A8091DA0080FF66
:103E70001FC08091D80080FF1BC08091DA008E7F28
:103E80008093DA008091D90080FF0DC080E189BD68
:103E900082E189BD09B400FEFDCF81E08093AF02CD
:103EA0000E94781A05C019BC1092AF020E948E1AA7
:103EB0008091E10080FF19C08091E20080FF15C071
:103EC0008091E2008E7F8093E2008091E200806129
:103ED0008093E2008091D80080628093D80019BC62
:103EE00085E08093AF020E94A41A8091E10084FFD4
:103EF00030C08091E20084FF2CC080E189BD82E166
:103F000089BD09B400FEFDCF8091D8008F7D8093DC
:103F1000D8008091E1008F7E8093E1008091E200E3
:103F20008F7E8093E2008091E20081608093E200C6
:103F30008091AB02882311F084E007C08091E300F8
:103F400087FD02C081E001C083E08093AF020E9440
:103F5000B51A8091E10083FF29C08091E20083FFC0
:103F600025C08091E100877F8093E10082E080930B
:103F7000AF021092AB028091E1008E7F8093E1004E
:103F80008091E2008E7F8093E2008091E200806168
:103F90008093E20042E060E080E00E94121E809187
:103FA000F00088608093F0000E94991AFF91EF91D1
:103FB000BF91AF919F918F917F916F915F914F9141
:103FC0003F912F910F900FBE0F901F9018951F9249
:103FD0000F920FB60F9211242F933F934F935F933D
:103FE0006F937F938F939F93AF93BF93CF93DF9301
:103FF000EF93FF93C091E900CF708091EC00D82F30
:10400000D17080FDD0E81092E9008091F000877FA8
:104010008093F00078940E942B201092E900809108
:10402000F00088608093F000CD2BCF70C093E90042
:10403000FF91EF91DF91CF91BF91AF919F918F91C0
:104040007F916F915F914F913F912F910F900FBE94
:104050000F901F901895AAE2B0E0E1E3F0E20C9413
:10406000D021E0EBF2E08091F100819322E0E83B87
:10407000F207C9F70E94231B8091E80083FF2EC13D
:104080008091B0029091B102492F50E04A30510521
:1040900008F024C1FA01E557FF4F0C94BB2180388A
:1040A00021F0823809F01AC108C08091AC029091C9
:1040B000AD02992389F082600FC08091B4028F70A5
:1040C000873008F00BC18093E9008091EB0085FBFD
:1040D000882780F91092E9009091E800977F9093EB
:1040E000E8008093F1001092F100D1C0282F2D7FBD
:1040F00009F0F4C0882319F0823061F0EFC080919C
:10410000B202813009F0EAC0933009F080E0809378
:10411000AD022EC08091B20281112AC08091B402FA
:104120008F702FEF280F263008F0D8C08093E90059
:104130002091EB0020FF1CC0933021F48091EB0014
:10414000806214C09091EB0090619093EB0021E0AD
:1041500030E0A90102C0440F551F8A95E2F7409351
:10416000EA001092EA008091EB0088608093EB00F7
:104170001092E9008091E800877F8093E8000E9418
:10418000471EACC08111AAC01091B2021F77809166
:10419000E3008078812B8093E3008091E800877FA3
:1041A0008093E8000E94471E8091E80080FFFCCFCA
:1041B0008091E30080688093E300111102C082E0E7
:1041C00001C083E08093AF0289C08058823008F03C
:1041D00085C08091B2029091B3028C3D53E0950767
:1041E00079F583E08A838AE289834FB7F894DE0108
:1041F000139620E03EE051E2E32FF0E050935700A9
:10420000E49120FF03C0E295EF703F5FEF708E2FC7
:1042100090E0EA3010F0C79601C0C0968D939D9350
:104220002F5F243149F74FBF8091E800877F80934B
:10423000E8006AE270E0CE0101960E94531D16C0AC
:104240006091B4027091B502AE014F5F5F4F0E9462
:104250009A1CBC01892B09F441C09091E800977F1A
:104260009093E80089819A810E94B11D8091E800B5
:104270008B778093E80032C0803881F58091E80028
:10428000877F8093E8008091AB028093F10080915A
:10429000E8008E7772CF811121C08091B202909197
:1042A000B30299270297D4F48091E800877F809326
:1042B000E8008091B2028093AB020E94471E809179
:1042C000AB02811106C08091E30087FD02C081E04E
:1042D00001C084E08093AF020E94091B8091E80036
:1042E00083FF0AC08091E800877F8093E800809177
:1042F000EB0080628093EB00AA96E3E00C94EC2143
:10430000CF938091AF028823A1F0C091E900CF70D4
:104310009091EC00892F817090FD80E8C82B10925D
:10432000E9008091E80083FD0E942B20CF70C093AC
:10433000E900CF910895991B79E004C0991F961761
:1043400008F0961B881F7A95C9F780950895AA1BD7
:10435000BB1B51E107C0AA1FBB1FA617B70710F070
:10436000A61BB70B881F991F5A95A9F780959095A2
:10437000BC01CD010895EE0FFF1F0590F491E02DD3
:1043800009942F923F924F925F926F927F928F92F9
:104390009F92AF92BF92CF92DF92EF92FF920F93D4
:1043A0001F93CF93DF93CDB7DEB7CA1BDB0B0FB6DE
:1043B000F894DEBF0FBECDBF09942A88398848889B
:1043C0005F846E847D848C849B84AA84B984C88431
:1043D000DF80EE80FD800C811B81AA81B981CE0F28
:1043E000D11D0FB6F894DEBF0FBECDBFED0108950D
:1043F000FB01DC0104C08D910190801921F4415032
:104400005040C8F7881B990B0895FB01DC0102C0DE
:1044100001900D9241505040D8F70895F999FECF80
:1044200092BD81BDF89A992780B50895A6E1B0E0C4
:1044300044E050E00C945822A8E1B0E042E050E0A3
:104440000C945822DC01A40FB51F4150504048F095
:10445000CB01840F951F2E910E9433224150504072
:10446000D0F70895262FF999FECF92BD81BDF89A15
:10447000019700B4021639F01FBA20BD0FB6F894A8
:10448000FA9AF99A0FBE08950396272F0E943322B5
:104490000E943222252F0E943322242F0C94332293
:1044A0000196272F0E9433220C943222DC01CB018B
:1044B000FC01F999FECF06C0F2BDE1BDF89A319634
:1044C00000B40D9241505040B8F70895F894FFCFD2
:1044D000F4016B030112022E1A641A311A5D1A5686
:1044E0001A013536679091929394959697C6F1F399
:1044F000F5F6F7E200E900EA00B500B600B700CD36
:10450000008301CC008A019201940121022302243C
:10451000022502260227022A02B300B4006F0070AF
:10452000009F01CB019F02A002818283E200E9008B
:10453000EA00B500B600B700CD008301CC008A01C7
:10454000920194012102230224022502260227025D
:104550002A02B300B4006F0070009F01CB019F02DC
:10456000A0028182838F14E813A214B614447B1531
:0C4570005E03E302CE027A029302AC026A
:00000001FF
